{
  "_format": "hh-sol-artifact-1",
  "contractName": "ProductRegistry",
  "sourceName": "contracts/ProductRegistry.sol",
  "abi": [
    {
      "inputs": [],
      "stateMutability": "nonpayable",
      "type": "constructor"
    },
    {
      "anonymous": false,
      "inputs": [
        {
          "indexed": false,
          "internalType": "string",
          "name": "id",
          "type": "string"
        },
        {
          "indexed": false,
          "internalType": "string",
          "name": "name",
          "type": "string"
        }
      ],
      "name": "manifactured",
      "type": "event"
    },
    {
      "inputs": [
        {
          "internalType": "address",
          "name": "_manufacturer",
          "type": "address"
        }
      ],
      "name": "addManufacturer",
      "outputs": [],
      "stateMutability": "nonpayable",
      "type": "function"
    },
    {
      "inputs": [],
      "name": "details",
      "outputs": [
        {
          "internalType": "string",
          "name": "id",
          "type": "string"
        },
        {
          "internalType": "string",
          "name": "name",
          "type": "string"
        },
        {
          "internalType": "string",
          "name": "description",
          "type": "string"
        },
        {
          "internalType": "string",
          "name": "origin",
          "type": "string"
        },
        {
          "internalType": "uint256",
          "name": "manufacturingDate",
          "type": "uint256"
        }
      ],
      "stateMutability": "view",
      "type": "function"
    },
    {
      "inputs": [
        {
          "internalType": "string",
          "name": "_id",
          "type": "string"
        }
      ],
      "name": "getManufacturingDetails",
      "outputs": [
        {
          "components": [
            {
              "internalType": "string",
              "name": "id",
              "type": "string"
            },
            {
              "internalType": "string",
              "name": "name",
              "type": "string"
            },
            {
              "internalType": "string",
              "name": "description",
              "type": "string"
            },
            {
              "internalType": "string",
              "name": "origin",
              "type": "string"
            },
            {
              "internalType": "uint256",
              "name": "manufacturingDate",
              "type": "uint256"
            }
          ],
          "internalType": "struct ProductRegistry.ProductDetails",
          "name": "",
          "type": "tuple"
        }
      ],
      "stateMutability": "view",
      "type": "function"
    },
    {
      "inputs": [
        {
          "internalType": "address",
          "name": "",
          "type": "address"
        }
      ],
      "name": "isManufacturerExist",
      "outputs": [
        {
          "internalType": "uint256",
          "name": "",
          "type": "uint256"
        }
      ],
      "stateMutability": "view",
      "type": "function"
    },
    {
      "inputs": [
        {
          "internalType": "uint256",
          "name": "",
          "type": "uint256"
        }
      ],
      "name": "manufacturers",
      "outputs": [
        {
          "internalType": "address",
          "name": "",
          "type": "address"
        }
      ],
      "stateMutability": "view",
      "type": "function"
    },
    {
      "inputs": [
        {
          "internalType": "string",
          "name": "",
          "type": "string"
        }
      ],
      "name": "manufacturingDetails",
      "outputs": [
        {
          "internalType": "string",
          "name": "id",
          "type": "string"
        },
        {
          "internalType": "string",
          "name": "name",
          "type": "string"
        },
        {
          "internalType": "string",
          "name": "description",
          "type": "string"
        },
        {
          "internalType": "string",
          "name": "origin",
          "type": "string"
        },
        {
          "internalType": "uint256",
          "name": "manufacturingDate",
          "type": "uint256"
        }
      ],
      "stateMutability": "view",
      "type": "function"
    },
    {
      "inputs": [
        {
          "internalType": "address",
          "name": "",
          "type": "address"
        },
        {
          "internalType": "uint256",
          "name": "",
          "type": "uint256"
        }
      ],
      "name": "manufacturorProducts",
      "outputs": [
        {
          "internalType": "string",
          "name": "",
          "type": "string"
        }
      ],
      "stateMutability": "view",
      "type": "function"
    },
    {
      "inputs": [
        {
          "internalType": "uint256",
          "name": "",
          "type": "uint256"
        }
      ],
      "name": "productsList",
      "outputs": [
        {
          "internalType": "string",
          "name": "",
          "type": "string"
        }
      ],
      "stateMutability": "view",
      "type": "function"
    },
    {
      "inputs": [
        {
          "internalType": "string",
          "name": "_id",
          "type": "string"
        },
        {
          "internalType": "string",
          "name": "_name",
          "type": "string"
        },
        {
          "internalType": "string",
          "name": "_description",
          "type": "string"
        },
        {
          "internalType": "string",
          "name": "_origin",
          "type": "string"
        }
      ],
      "name": "setManufacturingDetails",
      "outputs": [],
      "stateMutability": "nonpayable",
      "type": "function"
    }
  ],
  "bytecode": "0x60806040526040518060a00160405280604051806020016040528060008152508152602001604051806020016040528060008152508152602001604051806020016040528060008152508152602001604051806020016040528060008152508152602001600081525060066000820151816000019081620000819190620003a4565b506020820151816001019081620000999190620003a4565b506040820151816002019081620000b19190620003a4565b506060820151816003019081620000c99190620003a4565b50608082015181600401555050348015620000e357600080fd5b50336000806101000a81548173ffffffffffffffffffffffffffffffffffffffff021916908373ffffffffffffffffffffffffffffffffffffffff1602179055506200048b565b600081519050919050565b7f4e487b7100000000000000000000000000000000000000000000000000000000600052604160045260246000fd5b7f4e487b7100000000000000000000000000000000000000000000000000000000600052602260045260246000fd5b60006002820490506001821680620001ac57607f821691505b602082108103620001c257620001c162000164565b5b50919050565b60008190508160005260206000209050919050565b60006020601f8301049050919050565b600082821b905092915050565b6000600883026200022c7fffffffffffffffffffffffffffffffffffffffffffffffffffffffffffffffff82620001ed565b620002388683620001ed565b95508019841693508086168417925050509392505050565b6000819050919050565b6000819050919050565b6000620002856200027f620002798462000250565b6200025a565b62000250565b9050919050565b6000819050919050565b620002a18362000264565b620002b9620002b0826200028c565b848454620001fa565b825550505050565b600090565b620002d0620002c1565b620002dd81848462000296565b505050565b5b818110156200030557620002f9600082620002c6565b600181019050620002e3565b5050565b601f82111562000354576200031e81620001c8565b6200032984620001dd565b8101602085101562000339578190505b620003516200034885620001dd565b830182620002e2565b50505b505050565b600082821c905092915050565b6000620003796000198460080262000359565b1980831691505092915050565b600062000394838362000366565b9150826002028217905092915050565b620003af826200012a565b67ffffffffffffffff811115620003cb57620003ca62000135565b5b620003d7825462000193565b620003e482828562000309565b600060209050601f8311600181146200041c576000841562000407578287015190505b62000413858262000386565b86555062000483565b601f1984166200042c86620001c8565b60005b8281101562000456578489015182556001820191506020850194506020810190506200042f565b8683101562000476578489015162000472601f89168262000366565b8355505b6001600288020188555050505b505050505050565b611a2c806200049b6000396000f3fe608060405234801561001057600080fd5b50600436106100935760003560e01c80637ab44d0d116100665780637ab44d0d1461012257806390175af1146101565780639dc8cdec14610186578063b92f09fc146101b6578063bb5cd0b1146101e657610093565b8063565974d3146100985780635e23bd30146100ba5780635f8a5afa146100d657806367318b6c146100f2575b600080fd5b6100a0610216565b6040516100b1959493929190610f29565b60405180910390f35b6100d460048036038101906100cf91906110e1565b61045a565b005b6100f060048036038101906100eb9190611216565b610666565b005b61010c6004803603810190610107919061126f565b61079f565b604051610119919061129c565b60405180910390f35b61013c600480360381019061013791906112be565b61084b565b60405161014d959493929190610f29565b60405180910390f35b610170600480360381019061016b919061126f565b610ab7565b60405161017d9190611316565b60405180910390f35b6101a0600480360381019061019b9190611216565b610af6565b6040516101ad9190611331565b60405180910390f35b6101d060048036038101906101cb91906112be565b610b0e565b6040516101dd9190611430565b60405180910390f35b61020060048036038101906101fb9190611452565b610d98565b60405161020d919061129c565b60405180910390f35b6006806000018054610227906114c1565b80601f0160208091040260200160405190810160405280929190818152602001828054610253906114c1565b80156102a05780601f10610275576101008083540402835291602001916102a0565b820191906000526020600020905b81548152906001019060200180831161028357829003601f168201915b5050505050908060010180546102b5906114c1565b80601f01602080910402602001604051908101604052809291908181526020018280546102e1906114c1565b801561032e5780601f106103035761010080835404028352916020019161032e565b820191906000526020600020905b81548152906001019060200180831161031157829003601f168201915b505050505090806002018054610343906114c1565b80601f016020809104026020016040519081016040528092919081815260200182805461036f906114c1565b80156103bc5780601f10610391576101008083540402835291602001916103bc565b820191906000526020600020905b81548152906001019060200180831161039f57829003601f168201915b5050505050908060030180546103d1906114c1565b80601f01602080910402602001604051908101604052809291908181526020018280546103fd906114c1565b801561044a5780601f1061041f5761010080835404028352916020019161044a565b820191906000526020600020905b81548152906001019060200180831161042d57829003601f168201915b5050505050908060040154905085565b336001600560008373ffffffffffffffffffffffffffffffffffffffff1673ffffffffffffffffffffffffffffffffffffffff16815260200190815260200160002054146104dd576040517f08c379a00000000000000000000000000000000000000000000000000000000081526004016104d49061153e565b60405180910390fd5b84600660000190816104ef919061170a565b508360066001019081610502919061170a565b508260066002019081610515919061170a565b508160066003019081610528919061170a565b504260066004018190555060066004866040516105459190611818565b9081526020016040518091039020600082018160000190816105679190611845565b506001820181600101908161057c9190611845565b50600282018160020190816105919190611845565b50600382018160030190816105a69190611845565b50600482015481600401559050507fff998316f70d8b1cc15c04617c231d3bc65b8b77dec8fb2a45ed9118a09e18ef85856040516105e592919061192d565b60405180910390a1600360003373ffffffffffffffffffffffffffffffffffffffff1673ffffffffffffffffffffffffffffffffffffffff1681526020019081526020016000208590806001815401808255809150506001900390600052602060002001600090919091909150908161065e919061170a565b505050505050565b60008054906101000a900473ffffffffffffffffffffffffffffffffffffffff1673ffffffffffffffffffffffffffffffffffffffff163373ffffffffffffffffffffffffffffffffffffffff16146106f4576040517f08c379a00000000000000000000000000000000000000000000000000000000081526004016106eb906119d6565b60405180910390fd5b6002819080600181540180825580915050600190039060005260206000200160009091909190916101000a81548173ffffffffffffffffffffffffffffffffffffffff021916908373ffffffffffffffffffffffffffffffffffffffff1602179055506001600560008373ffffffffffffffffffffffffffffffffffffffff1673ffffffffffffffffffffffffffffffffffffffff1681526020019081526020016000208190555050565b600181815481106107af57600080fd5b9060005260206000200160009150905080546107ca906114c1565b80601f01602080910402602001604051908101604052809291908181526020018280546107f6906114c1565b80156108435780601f1061081857610100808354040283529160200191610843565b820191906000526020600020905b81548152906001019060200180831161082657829003601f168201915b505050505081565b600481805160208101820180518482526020830160208501208183528095505050505050600091509050806000018054610884906114c1565b80601f01602080910402602001604051908101604052809291908181526020018280546108b0906114c1565b80156108fd5780601f106108d2576101008083540402835291602001916108fd565b820191906000526020600020905b8154815290600101906020018083116108e057829003601f168201915b505050505090806001018054610912906114c1565b80601f016020809104026020016040519081016040528092919081815260200182805461093e906114c1565b801561098b5780601f106109605761010080835404028352916020019161098b565b820191906000526020600020905b81548152906001019060200180831161096e57829003601f168201915b5050505050908060020180546109a0906114c1565b80601f01602080910402602001604051908101604052809291908181526020018280546109cc906114c1565b8015610a195780601f106109ee57610100808354040283529160200191610a19565b820191906000526020600020905b8154815290600101906020018083116109fc57829003601f168201915b505050505090806003018054610a2e906114c1565b80601f0160208091040260200160405190810160405280929190818152602001828054610a5a906114c1565b8015610aa75780601f10610a7c57610100808354040283529160200191610aa7565b820191906000526020600020905b815481529060010190602001808311610a8a57829003601f168201915b5050505050908060040154905085565b60028181548110610ac757600080fd5b906000526020600020016000915054906101000a900473ffffffffffffffffffffffffffffffffffffffff1681565b60056020528060005260406000206000915090505481565b610b16610e51565b600482604051610b269190611818565b90815260200160405180910390206040518060a0016040529081600082018054610b4f906114c1565b80601f0160208091040260200160405190810160405280929190818152602001828054610b7b906114c1565b8015610bc85780601f10610b9d57610100808354040283529160200191610bc8565b820191906000526020600020905b815481529060010190602001808311610bab57829003601f168201915b50505050508152602001600182018054610be1906114c1565b80601f0160208091040260200160405190810160405280929190818152602001828054610c0d906114c1565b8015610c5a5780601f10610c2f57610100808354040283529160200191610c5a565b820191906000526020600020905b815481529060010190602001808311610c3d57829003601f168201915b50505050508152602001600282018054610c73906114c1565b80601f0160208091040260200160405190810160405280929190818152602001828054610c9f906114c1565b8015610cec5780601f10610cc157610100808354040283529160200191610cec565b820191906000526020600020905b815481529060010190602001808311610ccf57829003601f168201915b50505050508152602001600382018054610d05906114c1565b80601f0160208091040260200160405190810160405280929190818152602001828054610d31906114c1565b8015610d7e5780601f10610d5357610100808354040283529160200191610d7e565b820191906000526020600020905b815481529060010190602001808311610d6157829003601f168201915b505050505081526020016004820154815250509050919050565b60036020528160005260406000208181548110610db457600080fd5b90600052602060002001600091509150508054610dd0906114c1565b80601f0160208091040260200160405190810160405280929190818152602001828054610dfc906114c1565b8015610e495780601f10610e1e57610100808354040283529160200191610e49565b820191906000526020600020905b815481529060010190602001808311610e2c57829003601f168201915b505050505081565b6040518060a0016040528060608152602001606081526020016060815260200160608152602001600081525090565b600081519050919050565b600082825260208201905092915050565b60005b83811015610eba578082015181840152602081019050610e9f565b60008484015250505050565b6000601f19601f8301169050919050565b6000610ee282610e80565b610eec8185610e8b565b9350610efc818560208601610e9c565b610f0581610ec6565b840191505092915050565b6000819050919050565b610f2381610f10565b82525050565b600060a0820190508181036000830152610f438188610ed7565b90508181036020830152610f578187610ed7565b90508181036040830152610f6b8186610ed7565b90508181036060830152610f7f8185610ed7565b9050610f8e6080830184610f1a565b9695505050505050565b6000604051905090565b600080fd5b600080fd5b600080fd5b600080fd5b7f4e487b7100000000000000000000000000000000000000000000000000000000600052604160045260246000fd5b610fee82610ec6565b810181811067ffffffffffffffff8211171561100d5761100c610fb6565b5b80604052505050565b6000611020610f98565b905061102c8282610fe5565b919050565b600067ffffffffffffffff82111561104c5761104b610fb6565b5b61105582610ec6565b9050602081019050919050565b82818337600083830152505050565b600061108461107f84611031565b611016565b9050828152602081018484840111156110a05761109f610fb1565b5b6110ab848285611062565b509392505050565b600082601f8301126110c8576110c7610fac565b5b81356110d8848260208601611071565b91505092915050565b600080600080608085870312156110fb576110fa610fa2565b5b600085013567ffffffffffffffff81111561111957611118610fa7565b5b611125878288016110b3565b945050602085013567ffffffffffffffff81111561114657611145610fa7565b5b611152878288016110b3565b935050604085013567ffffffffffffffff81111561117357611172610fa7565b5b61117f878288016110b3565b925050606085013567ffffffffffffffff8111156111a05761119f610fa7565b5b6111ac878288016110b3565b91505092959194509250565b600073ffffffffffffffffffffffffffffffffffffffff82169050919050565b60006111e3826111b8565b9050919050565b6111f3816111d8565b81146111fe57600080fd5b50565b600081359050611210816111ea565b92915050565b60006020828403121561122c5761122b610fa2565b5b600061123a84828501611201565b91505092915050565b61124c81610f10565b811461125757600080fd5b50565b60008135905061126981611243565b92915050565b60006020828403121561128557611284610fa2565b5b60006112938482850161125a565b91505092915050565b600060208201905081810360008301526112b68184610ed7565b905092915050565b6000602082840312156112d4576112d3610fa2565b5b600082013567ffffffffffffffff8111156112f2576112f1610fa7565b5b6112fe848285016110b3565b91505092915050565b611310816111d8565b82525050565b600060208201905061132b6000830184611307565b92915050565b60006020820190506113466000830184610f1a565b92915050565b600082825260208201905092915050565b600061136882610e80565b611372818561134c565b9350611382818560208601610e9c565b61138b81610ec6565b840191505092915050565b61139f81610f10565b82525050565b600060a08301600083015184820360008601526113c2828261135d565b915050602083015184820360208601526113dc828261135d565b915050604083015184820360408601526113f6828261135d565b91505060608301518482036060860152611410828261135d565b91505060808301516114256080860182611396565b508091505092915050565b6000602082019050818103600083015261144a81846113a5565b905092915050565b6000806040838503121561146957611468610fa2565b5b600061147785828601611201565b92505060206114888582860161125a565b9150509250929050565b7f4e487b7100000000000000000000000000000000000000000000000000000000600052602260045260246000fd5b600060028204905060018216806114d957607f821691505b6020821081036114ec576114eb611492565b5b50919050565b7f796f7520617265206e6f742061206d616e756661637475726572000000000000600082015250565b6000611528601a83610e8b565b9150611533826114f2565b602082019050919050565b600060208201905081810360008301526115578161151b565b9050919050565b60008190508160005260206000209050919050565b60006020601f8301049050919050565b600082821b905092915050565b6000600883026115c07fffffffffffffffffffffffffffffffffffffffffffffffffffffffffffffffff82611583565b6115ca8683611583565b95508019841693508086168417925050509392505050565b6000819050919050565b60006116076116026115fd84610f10565b6115e2565b610f10565b9050919050565b6000819050919050565b611621836115ec565b61163561162d8261160e565b848454611590565b825550505050565b600090565b61164a61163d565b611655818484611618565b505050565b5b818110156116795761166e600082611642565b60018101905061165b565b5050565b601f8211156116be5761168f8161155e565b61169884611573565b810160208510156116a7578190505b6116bb6116b385611573565b83018261165a565b50505b505050565b600082821c905092915050565b60006116e1600019846008026116c3565b1980831691505092915050565b60006116fa83836116d0565b9150826002028217905092915050565b61171382610e80565b67ffffffffffffffff81111561172c5761172b610fb6565b5b61173682546114c1565b61174182828561167d565b600060209050601f8311600181146117745760008415611762578287015190505b61176c85826116ee565b8655506117d4565b601f1984166117828661155e565b60005b828110156117aa57848901518255600182019150602085019450602081019050611785565b868310156117c757848901516117c3601f8916826116d0565b8355505b6001600288020188555050505b505050505050565b600081905092915050565b60006117f282610e80565b6117fc81856117dc565b935061180c818560208601610e9c565b80840191505092915050565b600061182482846117e7565b915081905092915050565b60008154905061183e816114c1565b9050919050565b81810361185357505061192b565b61185c8261182f565b67ffffffffffffffff81111561187557611874610fb6565b5b61187f82546114c1565b61188a82828561167d565b6000601f8311600181146118b957600084156118a7578287015490505b6118b185826116ee565b865550611924565b601f1984166118c78761155e565b96506118d28661155e565b60005b828110156118fa578489015482556001820191506001850194506020810190506118d5565b868310156119175784890154611913601f8916826116d0565b8355505b6001600288020188555050505b5050505050505b565b600060408201905081810360008301526119478185610ed7565b9050818103602083015261195b8184610ed7565b90509392505050565b7f796f7520646f6e277420686176652061636365737320746f206164642074686560008201527f206d616e75666163747572657220000000000000000000000000000000000000602082015250565b60006119c0602e83610e8b565b91506119cb82611964565b604082019050919050565b600060208201905081810360008301526119ef816119b3565b905091905056fea2646970667358221220482386a095fe9e7f13579addc72a656e6afe219b5c519550d02b9d1706b79ed664736f6c63430008130033",
  "linkReferences": {},
  "deployedLinkReferences": {}
}